:10041F0090E600E054E74410F090E601E04440F02D
:10042F0090E61074A0F090E611F000000090E61234
:10043F0074A2F000000090E61374A0F0000000908A
:10044F00E61474E2F000000090E61574E0F000008E
:10045F000090E6917480F000000090E695F00000A7
:10046F000090E691F000000090E695F0E4FFFEEFBB
:10047F002402FD74002FF58274F83EF583EDF00F22
:10048F00BF00010EE4B507E7EEB402E300000090F1
:10049F00E6987402F0000000E490E699F0FEFFEF9A
:1004AF002405FD74002FF58274F83EF583EDF0EF0F
:1004BF00240AFD74002FF58274FC3EF583EDF00FD6
:1004CF00BF00010EE4B507D7EEB402D300000090D1
:1004DF00E6987402F090E69CF0000000E490E69934
:0C04EF00F090E69DF0F51DF51E43AF01F6
:0104FB0022DE
:1004FC00E5AA20E00C00000090E6917480F000006A
:10050C0000E5AA20E51100000090E6987402F000C6
:10051C000000E490E699F0E5AA20E24E74F4F59A16
:10052C007400F59B7410F59D7400F59E90E694E0B4
:10053C00FE90E695E07C002400F51EEC3EF51DE4F3
:10054C00F518F519C3E519951EE518951D5012906F
:10055C00E67BE090E67CF00519E51970E70518805C
:10056C00E300000090E6957480F0E5AA20E74AE5E8
:10057C001E451D60447410F59A7400F59B74FCF5CF
:10058C009D7400F59EE4F518F519C3E519951EE563
:10059C0018951D501290E67BE090E67CF00519E56D
:1005AC001970E7051880E3000000E51D90E69CF04B
:0905BC00000000E51E90E69DF030
:0105C5002213
:0206FE00D32205
:02095900D322A7
:02095B00D322A5
:0809450090E6BAE0F51FD32291
:1008FA0090E740E51FF0E490E68AF090E68B04F07A
:02090A00D322F6
:08094D0090E6BAE0F51AD3228E
:10090C0090E740E51AF0E490E68AF090E68B04F06C
:02091C00D322E4
:02095D00D322A3
:02095F00D322A1
:02096100D3229F
:02096300D3229D
:10089E00C0E0C083C082D2015391EF90E65D740137
:0808AE00F0D082D083D0E032CB
:1008CE00C0E0C083C0825391EF90E65D7404F0D017
:0608DE0082D083D0E0325D
:1008E400C0E0C083C0825391EF90E65D7402F0D003
:0608F40082D083D0E03247
:10079C00C0E0C083C08290E680E030E7148521255C
:1007AC00852226852927852A28751B02751C008021
:1007BC0012852925852A26852127852228751B0047
:1007CC00751C405391EF90E65D7410F0D082D0838D
:0307DC00D0E03238
:1008B600C0E0C083C082D2035391EF90E65D740816
:0808C600F0D082D083D0E032B3
:1007DF00C0E0C083C08290E680E030E71485212519
:1007EF00852226852927852A28751B02751C0080DE
:1007FF0012852925852A26852127852228751B0004
:10080F00751C405391EF90E65D7420F0D082D08339
:03081F00D0E032F4
:01096500325F
:01096600325E
:01096700325D
:01096800325C
:01096900325B
:01096A00325A
:01096B003259
:01096C003258
:01096D003257
:01096E003256
:01096F003255
:010970003254
:010971003253
:010972003252
:010973003251
:010974003250
:01097500324F
:01097600324E
:01097700324D
:01097800324C
:01097900324B
:01097A00324A
:01097B003249
:01097C003248
:01097D003247
:01097E003246
:01097F003245
:010980003244
:010981003243
:010982003242
:010983003241
:010984003240
:01098500323F
:01098600323E
:01098700323D
:01098800323C
:0A093B000001020203030404050595
:1002B800E4F513F512F511F510C203C200C202C22B
:1002C8000112041F7E077F008E238F24752B07756C
:1002D8002C1275210775221C752907752A4A752D58
:1002E80007752E78EE54C070030203B975140075B3
:1002F80015808E168F17C3749A9FFF74079ECF249C
:1003080002CF3400FEE48F0F8E0EF50DF50CF50BC1
:10031800F50AF509F508AF0FAE0EAD0DAC0CAB0B39
:10032800AA0AA909A808C312091E5033E517250B04
:10033800F582E516350AF583E0FFE515250BF5820C
:10034800E514350AF583EFF0E50B2401F50BE435E8
:100358000AF50AE43509F509E43508F50880B78592
:10036800142385152474002480FF740734FFFEC30A
:10037800E52C9FF52CE52B9EF52BC3E5269FF5264E
:10038800E5259EF525C3E5289FF528E5279EF52751
:10039800C3E5229FF522E5219EF521C3E52A9FF5B5
:1003A8002AE5299EF529C3E52E9FF52EE52D9EF514
:1003B8002DD2E843D82090E668E04409F090E65C46
:1003C800E0443DF0D2AF90E680E020E105D204128F
:1003D80005C690E680E054F7F0538EF8C203120485
:1003E800FC300105120080C2013003F21206FE50F3
:1003F800EDC20312087920001690E682E030E70487
:10040800E020E1EF90E682E030E604E020E0E4124C
:07041800082212095980C7F8
:0B05F50090E509E030E402C322D322AD
:1000800090E6B9E0700302013F1470030201BC2442
:10009000FE700302023F24FB700302013914700357
:1000A00002013314700302012714700302012D248E
:1000B0000560030202A412095B40030202B090E64D
:1000C000BBE024FE602714603824FD601114602713
:1000D00024067050E52390E6B3F0E524803C120539
:1000E000F5503EE52B90E6B3F0E52C802DE525900C
:1000F000E6B3F0E5268023E52790E6B3F0E5288017
:100100001990E6BAE0FF12084EAA06A9077B01EA99
:10011000494B600DEE90E6B3F0EF90E6B4F00202CA
:10012000B002029F02029F12090C0202B012094D96
:100130000202B01209450202B01208FA0202B0121D
:10014000095D40030202B090E6B8E0247F60151418
:10015000601924027063A200E43325E0FFA202E4E8
:10016000334F8041E490E740F0803F90E6BCE0549C
:100170007EFF7E00E0D394807C0040047D018002FD
:100180007D00EC4EFEED4F243BF58274093EF58375
:10019000E493FF3395E0FEEF24A1FFEE34E68F8277
:1001A000F583E0540190E740F0E4A3F090E68AF094
:1001B00090E68B7402F00202B002029F12095F40C7
:1001C000030202B090E6B8E024FE60162402600349
:1001D0000202B090E6BAE0B40105C2000202B00229
:1001E000029F90E6BAE0705590E6BCE0547EFF7E38
:1001F00000E0D394807C0040047D0180027D00EC0F
:100200004EFEED4F243BF58274093EF583E493FFE7
:100210003395E0FEEF24A1FFEE34E68F82F583E014
:1002200054FEF090E6BCE05480131313541FFFE01B
:10023000540F2F90E683F0E04420F080738060122A
:100240000961506C90E6B8E024FE601A2402704FF9
:1002500090E6BAE0B40104D200805590E6BAE0B46A
:100260000202804C803990E6BCE0547EFF7E00E0C4
:10027000D394807C0040047D0180027D00EC4EFE22
:10028000ED4F243BF58274093EF583E493FF3395EB
:10029000E0FEEF24A1FFEE34E68F82F583800D901F
:1002A000E6A08008120963500790E6A0E04401F040
:0702B00090E6A0E04480F09D
:0102B7002224
:030033000209556A
:0409550053D8EF3252
:100700001201000200000040B404041000000102C5
:1007100000010A06000200000040010009022E004C
:1007200001010080320904000004FF0000000705F9
:10073000020200020007050402000200070586020B
:100740000002000705880200020009022E000101D4
:100750000080320904000004FF00000007050202C7
:100760004000000705040240000007058602400023
:100770000007058802400000040309041003430039
:100780007900700072006500730073000E0345006D
:0C0790005A002D005500530042000000EC
:1008220090E682E030E004E020E60B90E682E030E1
:10083200E119E030E71590E680E04401F07F147E94
:0C084200001206B890E680E054FEF022A0
:1005C60030040990E680E0440AF0800790E680E077
:1005D6004408F07FDC7E051206B890E65D74FFF0F5
:0F05E60090E65FF05391EF90E680E054F7F0223B
:02084E00A907F8
:10085000AE2DAF2E8F828E83A3E064037017AD019F
:1008600019ED7001228F828E83E07C002FFDEC3E1B
:08087000FEAF0580DFE4FEFF8E
:01087800225D
:1008790090E682E044C0F090E681F04387010000F1
:040889000000002249
:1006B8008E188F1990E600E054187012E51924017D
:1006C800FFE43518C313F518EF13F519801590E6F4
:1006D80000E05418FFBF100BE51925E0F519E518DF
:1006E80033F518E5191519AE18700215184E60057E
:0606F80012088D80EE22C5
:10088D007400F58690FDA57C05A3E582458370F97E
:01089D002238
:03004300020600B2
:03005300020600A2
:1006000002089E000208E4000208CE000208B600BC
:1006100002079C000207DF0002096500020966006C
:1006200002096700020968000209690002096A00FC
:1006300002096B0002096C0002096D0002096E00DC
:1006400002096F00020966000209700002097100C8
:1006500002097200020973000209740002097500A0
:1006600002097600020966000209660002096600B6
:1006700002097700020978000209790002097A006C
:1006800002097B0002097C0002097D0002097E004C
:1006900002097F000209800002098100020982002C
:1006A000020983000209840002098500020986000C
:0806B00002098700020988001D
:0300000002092FC3
:0C092F00787FE4F6D8FD75812E0202B836
:10091E00EB9FF5F0EA9E42F0E99D42F0E89C45F02F
:01092E0022A6
:00000001FF
